:020000040800F2
:10400000082900208141000875C5000877C500080F
:1040100000000000000000000000000000000000A0
:1040200000000000000000000000000079C500084A
:1040300000000000000000007BC500087DC50008EE
:10404000B141000855C6000837C60008B141000854
:10405000B14100087FC5000881C5000883C500087C
:10406000B1410008B1410008B1410008B141000868
:1040700017C60008B1410008B1410008B1C50008E9
:10408000C1C50008B1410008B1410008B1410008B4
:10409000B1410008B1410008B1410008B141000838
:1040A000B1410008B1410008B1410008B5B30008B2
:1040B000ABC50008ADC5000819C60008B14100082D
:1040C00000F002F800F030F80CA030C808382418CE
:1040D0002D18A246671EAB4654465D46AC4201D140
:1040E00000F022F87E460F3E0FCCB6460126334242
:1040F00000D0FB1AA246AB463343184708D3000052
:1041000028D300000023002400250026103A01D304
:1041100078C1FBD8520700D330C100D50B6070477F
:104120001FB51FBD10B510BD0CF0B6FB1146FFF753
:10413000F7FF08F011F90CF0CEFB03B4FFF7F2FF24
:1041400003BC0CF003FC000070B505460C46164697
:1041500002E00FCC0FC5103E102EFAD2082E02D36B
:1041600003CC03C5083E042E07D301CC01C5361F7E
:1041700003E021782970641C6D1C761EF9D270BD95
:104180000F4880F308880F480168090E0E4A9142D3
:1041900005D10E480E4901600E480F4901600F48D5
:1041A00080470F480047FEE7FEE7FEE7FEE7FEE731
:1041B000FEE700000B480C490C4A0D4B704700000D
:1041C00008290020040000001F0000001810024011
:1041D00001000000000001400000000043F600085C
:1041E000C1400008082300200829002008250020DD
:1041F000082500207CB50121880408F026FDFF4D2C
:1042000004220821284608F0E0FA04220921284661
:1042100008F0DBFAFF2001300090022469460C719F
:104220000120C871284608F064FA2002009069460F
:104230000C710020887103224A71C871284608F069
:1042400058FA7CBD70B588B0FFF7D4FFEC4E30460D
:1042500008F08CFD684608F05CFE002469468C710D
:104260000125CD710C724D728C72CC728C70CD7038
:10427000072008710620487103200880304608F0A6
:1042800080FD69468C75CC750D768C81CC810C8255
:104290004C828C824D7603A808F0E0FD01220221B9
:1042A000304608F0EDFF08B070BD0FB4F0B5D5484A
:1042B000082281780024114381708C46D2490698E7
:1042C00088423FD1D148407800283BD16846837F5F
:1042D0001E301A5CCE4DD009591E05AE00280DD0F7
:1042E0000020374604E03E18F67A2E54401CC0B237
:1042F0008142F8DCC5490120087115E0C348D406A5
:104300000079E40E01280FD10020E5002D1BAE46F8
:1043100008E005AD2D18EE7A75462F18BC4D401CEF
:10432000EE55C0B28142F4DC40200240402A09D15F
:10433000B6480179012905D14170E100091B491EE8
:1043400059184173B3490698884201D1012000E011
:104350000020069905290BD00021084304D0A94864
:104360006146102211438170F0BC08BC04B01847AC
:104370000121F2E7F0B5A54800264178F1B0002907
:1043800012D0407BA24D801E81B2A81C03F0B0FD6C
:1043900069782878090240189F4980B209888142CB
:1043A00003D09A4900204870D9E12979E8780902B8
:1043B000401887B201206C79C003874220D103F0F6
:1043C00050FE03F069FE03F0B7FE0A2008F0B3F8D0
:1043D0000AF048FB8D4840690AF075FB00900AF02E
:1043E0004AFB0098042811D00AF03CFB874840693A
:1043F0000AF069FB00900AF03EFB0098042805D003
:10440000834880780190002802D0A4E000F0E5FE07
:1044100001208003391A8148814211D8B9048048AB
:10442000890C018203F088FE7E480024047006F0A7
:1044300039F876487C4981610121817044708EE1B0
:104440000120400387423AD36008C119774881426E
:1044500035D8FF222220613200901546744904A805
:104460000BF07FF9734968A8009A0BF07AF968ABF2
:1044700004A8A9199A5D091820398A77761C009931
:10448000F6B28E42F5D36C497A0051185F4A89B270
:104490006A4D118200232B6001E0232B02D895780E
:1044A000002DFAD15A4A0026F03205E0731895190A
:1044B000C35C761CAB71F6B2A642F7D34BE0212069
:1044C0000002874228D359496008C019B431884294
:1044D00022D820225A4904A80BF043F95F21780022
:1044E00049024018494980B2544B088200221A60A0
:1044F00001E0232A02D88B78002BFAD1444A002607
:1045000004A9F03205E033189519CB5C761CAB7129
:10451000F6B2A642F7D31EE005200003874220D161
:10452000B422484904A80BF01CF944490020086053
:10453000364901E0232802D88A78002AFAD1344982
:10454000002604A8F03104E0825D8B19761C9A7174
:10455000F6B2A642F8D3364D01984035012804D072
:10456000DCE22B48FF2181702FE301208003391A00
:104570002A4881420FD82348DF2281781140817078
:10458000274900200C310BF061F925490020083142
:104590000BF05CF9C8E225489B3887427DD3600860
:1045A000C119224881427FD8FF226132204904A8E4
:1045B0000BF0D7F820487900081881B2134804AEF0
:1045C00001820020124A05E0131847189B79401C0D
:1045D000F355C0B2A042F7D3FF22613231461448EE
:1045E0000BF0BFF869792A79A87A09021143484388
:1045F00064210BF033F980B20D4E25E00004004831
:104600000064004084110020E416E400C010002083
:10461000CC1200200B0424176A110020FE0F0000AA
:10462000E01F00200812002016E41600BC20000045
:10463000841700208619002000C0FFFFC011002051
:10464000E4180020A819002042363071010A717167
:10465000FE494843FE490BF0F9F8717832780E02B2
:10466000E87A1643704364210BF0F8F82871000AC9
:104670006871687A2A7A000210437D22D200F10024
:1046800050430BF0EBF82873000A687303F0E9FC61
:10469000142007F050FF002000E005E002F077F85A
:1046A000EC490120C87039E2EB48874216D1EB494A
:1046B00000200BF0CBF8EA4900200BF0C7F8E749DF
:1046C0000020091F0BF0C2F8E64900200BF0BEF8ED
:1046D000E4490020091F0BF0B9F859E1DE48E24A2D
:1046E000401C87421DD1E14880198179C0790002C0
:1046F0000E18D848C6611068002830DB0BF0B1FDF9
:104700000746304600910BF0ACFD0022D84B0BF071
:10471000B3FD3A46009B0BF03BFB0BF04FF9D5493C
:1047200061E0CD48801C874231D1D048FB07801919
:104730008179C079000200B20818C6499842C86160
:1047400001D3401EC0430862009012689A4201D211
:10475000104601E0501EC0434862002A02DD0020DE
:1047600071B0F0BD0BF07DFD06460F4600980BF0D2
:1047700078FD0022BE4B0BF07FFD32463B460BF02E
:1047800007FB0BF01BF9BB490BF060F8E3E0B24804
:10479000C01C874247D1B5488019C279817912027D
:1047A0008918AC4A09B25182B34A02918918192278
:1047B000520191427ED2077A002F16D0AF4879007D
:1047C00008184038C08F0BF054FD0646009102983F
:1047D0000BF047FD3246009B0BF0DAFA0BF0EEF8D7
:1047E000A449BA005118091DCEE70026EF7B17E057
:1047F000A2487100405A0BF03CFD009001910298D4
:104800000BF02FFD019B009A0BF0C2FA0BF0D6F8CB
:104810009849B200511808310BF018F8761CF6B21E
:10482000B742E5D897E08C48401D874248D18F4871
:104830008019C2798179120289180AB285494A829F
:104840008F49029251188F4A914233D8077A002F2C
:1048500016D08A48790008184038C08F0BF009FD3F
:104860000646009102980BF0FCFC3246009B0BF0D0
:104870008FFA0BF0A3F87F49BA005118443183E74F
:104880000026EF7B19E07D487100405A0BF0F1FCE7
:104890000090019102980BF0E4FC019B009A0BF050
:1048A00077FA0BF08BF87349B200511848310AF0CF
:1048B000CDFF00E085E0761CF6B2B742E3D84AE0CF
:1048C0006548C01D874249D16848C1790191802956
:1048D00041D28119CB796C4AD25C802A3BD28F7944
:1048E000002F14D06848401E38560BF0BAFC06461C
:1048F000009101980BF0BDFC3246009B0BF048FA8A
:104900000BF05CF85B49BA0051183C313CE75F4959
:104910000026497903911BE05448801981795A484F
:10492000029140560BF09DFC0746009101980BF058
:10493000A0FC3A46009B0BF02BFA0BF03FF80299D3
:104940008A004C49511840310AF080FF761CF6B2BB
:104950000398B042E0D803F09FFBDFE03E48F72623
:104960000830874217D1002C2BD14949F922C87849
:104970004006400EC87008794008400010403040A2
:10498000087144490020C882222142480AF04FFFA2
:1049900003F0D2FBC2E030480A30874212D13E48D1
:1049A000102241783D4B1143304A4170D2881A8021
:1049B000002A02D1EF221140417039480021417094
:1049C0000170B1E023200002874221D12748214E07
:1049D000C17A3C367171817A3171417AF170017A14
:1049E000B170C179717080791A493070C86B096CE7
:1049F00005F045FC00280AD13178301FC17071786C
:104A00004170B17881700146002009F071FC85E0A9
:104A10001148093087425FD1144FB879FF2814D16B
:104A2000012109031F4807F0C6FE09200421C00622
:104A300007F0BFFE16488179314081711648017830
:104A4000314001701848032101702FE0407E0500BD
:104A50007B1A0020C010002003230000D21F00207A
:104A6000961F0020E41F0020CC110020CC12002053
:104A700000002440041900208CF1FFFF5C1A002084
:104A80003BF6FFFFAF040000C9110020E41700202F
:104A9000901100208619002084110020D0110020E0
:104AA000E41800200004004831120020B8790028E2
:104AB00034D1FB4808260178314301707102F9486E
:104AC00007F077FE09200421C00607F074FEF648BF
:104AD00081793143817121E0F44887420CD1F44857
:104AE0008079FF2820D1F34806210170EC4801228B
:104AF000C1781143C17017E0EC48401C874213D1C4
:104B0000EB48807955280FD101F0E6FCE649C00753
:104B10004A79EF23C00E1A4002434A71E448807874
:104B2000002801D0012850D1E3490020E34F08605C
:104B300001E0232802D8B9780029FAD1DC4E0120FF
:104B4000F036B070DA48C178F17001793171747162
:104B5000807800281BD001207071B0710720387058
:104B60000521B01C03F0C4F96879297900020843D3
:104B7000D349D44C4843E11D0AF068FEAD7A002DBC
:104B80000CD064210AF06AFE6843E11C08E0A01D15
:104B90003870B01C211D03F0ABF903E0E11C0020CC
:104BA0000AF054FEC848C04900883070000A70708E
:104BB000002078704979C90603D5BD498978012953
:104BC00005D0C248B8610120B8700120C8E538702E
:104BD000FAE7F8B5B94C00202278F02A46D2A1783D
:104BE000012943D1B24FB249F0372839A3790E18C1
:104BF000FD5C5B1CDBB2401CF572A371C0B293423A
:104C000001D20728F2D3DEB2AC4B5D79EB079B0EE5
:104C10002B43964201D340273B430F18FB72002DD4
:104C200006D1964201D3C02200E080220B18DA722E
:104C3000401C887204200872A06948609C49A448FE
:104C4000283908F0B2F96079401C6071A0792178A8
:104C500088420BD300206071A0712070A070904832
:104C600001784A0602D5BF22114001700120F8BD2B
:104C7000F8B5924CA06A002802D100F064FCA06252
:104C800000F061FCE062A16A884202D2401A401E34
:104C900000E0401AE062F9287ED9A07800287BD194
:104CA000A0628549E062086001E0232802D8A1786B
:104CB0000029FAD17A4901238A78864E1A438A70EC
:104CC000E179491CC9B2E17103297FD831464039E5
:104CD000487F0A7F010211430A2041437E484180F8
:104CE00031461E394B7C0A7C190609141143818018
:104CF000B17A0A225143C180314620391A228A569C
:104D00000A214A430281F07A502801D2012500E0AD
:104D1000002565486D0146787106CA0FF1090A43FE
:104D2000817896460B07DB0FC9061A43C90F0A4361
:104D3000510002780079D30697063B4357063B4360
:104D4000D709DB0FBF003B431943D3079707DB0F9E
:104D5000FF0F3B43570712071743FA0F94461A43B6
:104D6000D2001143F207B607F60FD20F37011743EF
:104D70003943C0062943C00F800101431802014393
:104D80007002024311437246900201436246D00210
:104D9000514D0143698101E017E017E028461C22CC
:104DA0004E490C300AF0DDFC2621A81C03F0C1F8A6
:104DB00028804B48E0813E4828222946F0300AF0FE
:104DC000D0FC282020700120A070F8BDE07141487F
:104DD000414DC030417D027D080210432835A87046
:104DE0003C480127E230427B017B10020843E87017
:104DF0002F716F71F07AA8740A20E8743548801C0E
:104E0000009041780278080210430A210AF026FD3A
:104E1000A882009841790279080210430A210AF019
:104E20001DFDE8822F4828832F4868832948403099
:104E30004178027808021043A883707B317B00021E
:104E4000084329468877000AC877284928460A88EF
:104E500020300270120A42704B88821C13701B0AA9
:104E600053708B8903711B0A43710B8913711B0AE1
:104E70005371898A0172090A41722821A81C03F022
:104E800058F8288016482A220930E0810848294627
:104E9000F0300AF066FC2A202070A770F8BD0000F0
:104EA000841100200004004890110020102300000D
:104EB000CC12002031120020C0110020C0100020B0
:104EC000407E0500781A00206A11002016E41600C2
:104ED00000640040C4170020F2140020E6180020EF
:104EE000D10200007017000084E400008619002041
:104EF000F8B5BE4C00202278F02A3DD2A1780129D5
:104F00003AD1BB4FF91FFD39637A0E18FD5C5B1C6B
:104F1000DBB2401CF5726372C0B2934201D2082822
:104F2000F2D3237ADD000835954201D30122A27223
:104F3000887204200872A07A1A01C000C01C1043B5
:104F4000E289D2041043AB4A10434860AA49AB48F7
:104F500008F02BF8207A401C2072607A2178884271
:104F60000AD300202072A07260722070A070A44842
:104F700081784908490081700120F8BDF8B59B4C43
:104F8000206B002802D100F0DEFA206300F0DBFA8B
:104F90006063216B884202D2401A401E00E0401A32
:104FA0006063FA287ED9A07800287BD120636063F3
:104FB00094488F4D417D027D08021043F035A87062
:104FC0009048801C417D027D08021043E8708D48A6
:104FD0002230417B027B080210432871894820302F
:104FE000417C027C0802104387496871487F097F31
:104FF0000002084364214843E88083482230427C11
:10500000017C1006001408430A21484328817E4889
:105010001A212030415669812030817AA981417B53
:10502000027B09021143E981C07A288228461C22AA
:10503000764912300AF095FB734842304178037884
:105040000A021A430A214A43294622310A73120AE4
:105050008E464A7341790279080210430A21484377
:105060002A4611466A4B10869A7820318C46D00722
:105070009107C00FC90F08439106C90F0843510695
:10508000C90F084359784E06F60FCF093E4317075C
:10509000FF0FD2063E43D20F164372001043CA07D9
:1050A000D20F00E059E08E07F60FB60032431043EE
:1050B0000A07CE063243D20FD20010431A78D60622
:1050C00097063E4357063E43D709F60FBF013E43BE
:1050D0003043D6079707F60FFF0F3E43F6013043E4
:1050E000560712071643F20F120210434A07D20F57
:1050F00089065202C90F104389020843D978102249
:105100004906C90FC90208431979C906C90F09031D
:10511000084371460874000A48740020614688827A
:10512000384928461E3136300AF01BFB4421A81CA2
:1051300002F0DEFE374846220088288029462C48A7
:10514000FFF702F8462020702D48402201781143D5
:1051500001700120A0703048A061F8BDFEB52A485A
:1051600000242EA52FA60622304928300AF0F9FA8D
:10517000254B68466200D718E037797B3F7B0902F0
:1051800039438154090A1218641CE4B25170052C89
:10519000F0D30146062228460AF0B6FA134C06223E
:1051A000E072694630460AF0AFFA2073E07A0028D0
:1051B00001D1FFF7E3FE207B002801D1FFF758FD66
:1051C000FFF7D8F81A4800680F2805D90C488078EE
:1051D000800601D505F06DFAFEBDBFF34F8F16496D
:1051E0001448C860BFF34F8FFEE70000C0100020D6
:1051F000BC13002000040400B8120020006400402A
:10520000841100208418002084170020E618002054
:10521000901100206A11002016921001554156434A
:10522000414E0000424F59494E47000052120020A3
:10523000BC1100200400FA0500ED00E0FEB5FE48B8
:105240000090012468460471032646718471C4717C
:105250006946FA4807F04DFAF949F84807F0A9FA03
:105260000E20009009206946C00607F042FA092086
:105270000C21C00607F09DFA0220F24D009069460D
:10528000284607F036FA0221284607F092FAEE4D3A
:10529000670369462846009707F02BFA0220009022
:1052A00009206946C00607F024FA3946284607F067
:1052B00082FA09200221C00607F07BFA09200221A8
:1052C000C00607F076FA0025684685711020009028
:1052D0006946DA4807F00DFA68468471009746710E
:1052E00004716946D54807F004FAA00300906846A7
:1052F00004716946D14807F0FCF97103CF4807F003
:1053000058FA2020009068460571C5716946CB485F
:1053100007F0EFF9E702684600970571C5710920AB
:105320006946C00607F0E5F9082000906846057157
:105330000221C1716946C14807F0DBF96846009750
:10534000047146718471C4716946BC4807F0D1F993
:105350003946BA4807F02FFA24036846009485714D
:1053600009206946C00607F0C4F909202146C00695
:1053700007F021FA6946B148009407F0BAF92146CE
:10538000AE4807F018FAFEBDFEB501460126092712
:10539000AA483603FF0601297ED0A94900910325BA
:1053A0006A4615710024D471694607F0A2F9A44930
:1053B000A24807F0FEF90C2000906946384607F035
:1053C00098F90C21384607F0F4F90220009069465C
:1053D0009C4807F08EF902219A4807F0EAF98327E2
:1053E0003F026A4600971571D4716946934807F0E9
:1053F00080F93946914807F0DEF9F02000906A46BE
:1054000015710920D4716946C00607F072F91020A1
:10541000009001206A46107194716946874807F030
:1054200068F90920F021C00607F0C5F97700694640
:105430008548009707F05DF93946834807F0B9F9C8
:105440000220009009206946C00607F052F90920A1
:105450000221C00607F0AFF96A4615717B4800903B
:10546000D4716946754807F044F91021734807F074
:10547000A2F96903714807F09EF909206946C00640
:10548000009607F036F909203146C00607F091F979
:1054900008206A46009000E03AE01471D471694631
:1054A000664807F026F90821644807F084F96A463F
:1054B000157169466148009607F01BF931465F484F
:1054C00007F079F9E72636026A4600961571092039
:1054D000D4716946C00607F00CF909203146C006B0
:1054E00007F069F9012000906946564807F001F974
:1054F0000121544807F05FF92324A40169464F486D
:10550000009407F0F6F821464C4807F054F9FEBD28
:1055100003214903044607F04CF93146384607F0A9
:105520004AF91021204607F044F901214903464871
:1055300007F041F90221384607F03BF902213846CD
:1055400007F037F9FEBD424800687047F8B5414A98
:10555000414C537898065907084336D41178880788
:1055600033D495780026E806C70FD80907433B488F
:10557000002F10D0C17800290AD0C67075E0042130
:10558000204607F016F902212E4807F014F9F8BD5D
:105590000121C17033E0DA07D20F9F07FF0F3A43B2
:1055A0000DD0980711D40821204607F004F90421F2
:1055B000204607F0FEF81DE007F0FBF8F8BD0A07EB
:1055C0004F073A4306D50807F8D50821204607F0CB
:1055D000F2F8D4E71F4AD27852061AD50179002989
:1055E0000BD006710821204607F0E3F8042120467D
:1055F00007F0E1F802211348DEE7012101710221E1
:10560000104807F0D6F80421204607F0D2F8082108
:1056100029E0CA068F063A43D20FCF093A434F0614
:10562000FF0F3A4326D0C8061FD50821204607F0B1
:10563000C2F80221034813E0078400000004004878
:105640000704000000140048000800481060000033
:10565000AC1100209011002000000048041100202F
:1056600007F0A7F804212046A6E70821204607F006
:10567000A0F884E75A0629070A43F84949790BD468
:10568000EA07AB07D20FDB0F1A43AB06DB0F1A4357
:105690006B06DB0F1A43B2D0002901D0467182E7B6
:1056A00001214171ABE7F8B5ED4800240078EB4DDE
:1056B0008107002907DAEC71E949FD222C721040BC
:1056C00008702C7319E0287B012816D1A8690028DE
:1056D00002D1FFF738FFA861FFF735FFE861A9693C
:1056E000884202D2401A401E00E0401AFF21F531E4
:1056F000E861884273D9AC61EC61D8480126067331
:105700004178D9480090D74D0227D448012905D0C7
:105710004472D2494878022838D00AE0417A0E29EA
:1057200004D2491CC9B241720E2902D30178002962
:1057300018D0CA488472C94840780328C7487CD02A
:10574000C472C648417801290BD8C84A1278012A88
:1057500074D0022A73D0C64A1278032AFAD00129DB
:10576000F8D026E34472447001218902284607F0EC
:1057700020F80421284607F01CF80221284607F0EB
:1057800018F80121284607F014F8C2E70098C07AFB
:105790000C2801D88C7125E002460D3A0B2A01D85D
:1057A0008E711FE00246193A0C2A01D88F7119E058
:1057B0000246263A0B2A01D8032012E00246323A6A
:1057C0000C2A01D804200CE002463F3A0B2A01D8EB
:1057D000052006E04B380C2802D8062001E0FBE249
:1057E000072088719D48817A491CC9B281720E29AF
:1057F00012D38472447001218902284606F0D9FF31
:105800000421284606F0D5FF0221284606F0D1FFE4
:105810000121284606F0CDFF904881790B000BF05E
:10582000C7F808051B25414F647691A38B48C079C2
:10583000002805D001280CD108E097E0D6E0DFE190
:1058400001218902284606F0B4FF1CE001218902EB
:105850003DE08248C4716EE701218902284606F0C6
:10586000AAFF0421284606F0A4FF24E07B48C07963
:10587000002803D00128ECD1042128E0012189026D
:10588000284606F098FF0421284606F092FF0221E0
:10589000284606F08EFF0121284606F08AFF6F4851
:1058A000C67148E701218902284606F084FF0421D9
:1058B000284606F080FF0221284606F07AFF21E004
:1058C0006648C079002806D00128C2D102212846A6
:1058D00006F071FFBDE701218902284606F06BFF43
:1058E0000421284606F067FFD1E7012189022846F6
:1058F00006F061FF0421284606F05DFF02212846DC
:1059000006F059FF0121284606F053FF13E75348DC
:10591000C079002808D001289BD10121284606F033
:105920004AFF4E48C77106E701218902284606F062
:1059300042FF0421284606F03EFF0221284606F0D9
:105940003AFFA8E701218902284606F034FF042126
:10595000284606F030FF0221284606F02CFF0121E0
:10596000284606F028FFE6E68471E4E6C17A491C81
:10597000C9B2C17202293F4928460ED206F019FF6A
:105980000421284606F015FF0221284606F011FFE3
:105990000121284606F00DFF0DE006F00CFF042162
:1059A000284606F008FF0221284606F004FF0121E0
:1059B000284606F000FF2948C17A0A2900D2C0E62D
:1059C00001780029FBD1C47244702A49284606F0A8
:1059D000F0FE0421284606F0ECFE0221284606F0DF
:1059E000E8FE0121284606F0E4FEAAE6002900D0E0
:1059F000B1E60099897A0C2901D8847112E00A462F
:105A00000D3A182A01D886710CE00A46263A182A5F
:105A100001D8877106E03F391F2901D8032100E032
:105A20000421817181790B000AF0C2FF05043F77E0
:105A3000BDF1F0000948007A03000AF0B9FF05043F
:105A4000091D279FB3000B49284606F0B2FE3CE033
:105A50000849284606F0AFFE8DE000000411002042
:105A60008411002000040048C417002050110020B9
:105A7000311200200004000001218902284606F0AE
:105A80009AFE0421284606F096FE42E00121890292
:105A9000284606F090FE0421284606F08CFE0221DE
:105AA000284606F088FE042034E0FD48007A0028ED
:105AB00006D001280ED002281AD0032872D15DE04A
:105AC00001218902284606F076FE0421284606F0C8
:105AD00070FE34E001218902284606F06CFE0421A4
:105AE000284606F068FE0221284606F062FE3EE0E7
:105AF00001218902284606F05EFE0421284606F0B0
:105B00005AFE0221284606F056FE0121284606F0DC
:105B100050FE0320E24908724BE1E148007A002878
:105B200004D0012816D002283CD127E001218902A7
:105B3000284606F040FE0421284606F03CFE0221DD
:105B4000284606F036FE0121284606F032FED448EB
:105B500006722EE101218902284606F02CFE04215E
:105B6000284606F028FE0221284606F024FE0121E0
:105B7000284606F01EFECA4807721AE10121890272
:105B8000284606F018FE0421284606F014FE0221DD
:105B9000284606F010FE0121284606F00CFEC048FB
:105BA000047206E1D4E00746007A002802D00128FA
:105BB0006CD112E001218902284606F0FCFD042187
:105BC000284606F0F8FD0221284606F0F4FD0121E2
:105BD000284606F0EEFD3E72EBE0012189022846E0
:105BE00006F0E9FD0421284606F0E5FD02212846DD
:105BF00006F0E1FD0121284606F0DDFD3C72D8E00B
:105C00000099897A0C2903D8847126E0D0E0BDE0A0
:105C10000A460D3A0B2A01D886711EE00A46193A47
:105C20000C2A01D8877118E00A46263A0B2A01D8B7
:105C3000032111E00A46323A0C2A01D804210BE074
:105C40000A463F3A0B2A01D8052105E04B390C29B9
:105C500001D8062100E00721817181790B000AF04B
:105C6000A7FE080517213C4A5F7195A70746C07932
:105C7000002802D0012809D105E001218902284627
:105C800006F097FD1BE0012189023BE0FC7190E0EA
:105C900001218902284606F08EFD0421284606F0DF
:105CA00088FD23E00746C079002803D00128EDD104
:105CB000042127E001218902284606F07CFD042109
:105CC000284606F076FD0221284606F072FD0121E5
:105CD000284606F06EFDFE716BE001218902284620
:105CE00006F069FD0421284606F065FD02212846DC
:105CF00006F05FFD21E00746C079002806D00128A4
:105D0000C4D10221284606F056FDBFE701218902D1
:105D1000284606F050FD0421284606F04CFDD2E747
:105D200001218902284606F046FD0421284606F096
:105D300042FD0221284606F03EFD0121284606F0DC
:105D400038FD36E05648C079002804D0012816D026
:105D50005348C4712DE001218902284606F02BFD2D
:105D60000421284606F027FD0221284606F023FDDF
:105D70000121284606F01DFD4948C67119E00121A0
:105D8000284606F018FD4648C77112E00121890235
:105D9000284606F010FD0421284606F00CFD0221DD
:105DA000284606F008FD0121284606F004FD00E023
:105DB00084713C480078062803D13B48807840062F
:105DC0000AD5FFF7C3FB38480078000704D509203F
:105DD0000421C00606F0EFFCF8BD10B520213348C1
:105DE00006F0D5FC2E490028887B07D000280ED06D
:105DF000401E0006000E887309D00AE00A2801D26E
:105E0000401C8873C0B20A2803D1002000E00120A2
:105E10004873487B10BD70B5FFF7DFFF204C0125AC
:105E2000E073002802D1207C012803D020780128CB
:105E300004D00EE0FFF787FBA0822570FFF783FBFD
:105E4000A18A80B2884202D2401A401E00E0401A65
:105E50006082E07B012802D1217C002902D02074DD
:105E6000002070BD00202070E5732574012070BDF6
:105E7000F8B5FFF7D0FF0A4C0B4D6074217801296B
:105E800016D000280AD00020A0706082A9780822CD
:105E90001143A9706178052900D16070F8BD000038
:105EA0000411002031120020841100200004004859
:105EB000C948012103787D20C84AC94F0226000144
:105EC000062B35D0032B7CD02878C30602D46B7800
:105ED0005B0777D5C04A03211170FF21C14AF53114
:105EE00011806978C0221143EF2211406970BE49C8
:105EF00000264E700E70BD4910400E80287030464E
:105F000000F08BFD2878F721084028700121090353
:105F1000384606F050FC09200421C00606F049FC72
:105F2000B348F722817911408171A6706670B5E798
:105F30006378002B5DD0012B77D0022B7ED0012B14
:105F4000ACD1A278002AA9D1628A8242A6D9A170D6
:105F500001218902A24806F02CFC0421A04806F089
:105F600028FC02219E4806F024FC01219C4806F0F2
:105F700020FC02219F4806F01CFC0927FF06042193
:105F8000384606F016FC0821384606F012FCFF27BA
:105F9000F537384606F0CFFA01218902904806F01D
:105FA0000AFC384606F0C7FA04218D4806F003FCC7
:105FB000384606F0C0FA0221894806F0FCFB384654
:105FC00001E045E0C8E006F0B6FA0121844806F099
:105FD000F2FB384606F0AFFA002060707E490320DD
:105FE000087028781021304328707D4806F0E1FBC6
:105FF00054E7A07800289AD1608A904297D2A0787E
:10600000002894D1A170617001218902384606F000
:10601000D0FB0421384606F0CCFB0221384606F0BE
:10602000C8FB0121B4E000E008E0A378012B88D18F
:10603000608A9042DCD366702878B4E0A0780128AA
:10604000D6D1618A6C488142D2D30520607065E068
:106050006378002B52D0032BCAD1A378012B5AD0DE
:10606000A278002AC4D1628A8242C1D3A1700221DF
:10607000604806F09EFB0925ED060421284606F03F
:1060800098FB0821284606F094FB0125AD0229461D
:10609000384606F090FB0421384606F08CFB0221BE
:1060A000384606F088FB0121384606F084FBFF26BF
:1060B000F536304606F03FFA0121384606F079FB06
:1060C000304606F038FA0221384606F072FB3046B8
:1060D00006F031FA0421384606F06BFB304606F034
:1060E0002AFA2946384606F064FB304606F023FAC1
:1060F00004206070384806210170CFE6A07800289F
:10610000FBD1608A9042F8D2A17003206070287899
:1061100030432870C2E6608A9042EED9012189029C
:10612000384606F046FB0421384606F042FB0221C1
:10613000384606F03EFB0121384606F03AFB0221C4
:106140002C4806F036FB0924E4060421204606F01C
:1061500030FB0821204649E76378002B0CD0012B47
:106160001AD0022BC9D1A0780128C6D1618A224851
:106170008142C2D3052090E6A0780028BDD1608A74
:106180009042BAD2A0780028B7D1A17061701B49A3
:10619000384606F00EFBBAE7A1780129ADD1618A35
:1061A0009142AAD366703043287001218902384693
:1061B00006F0FFFA0421384606F0FBFA02213846C1
:1061C00006F0F7FA0121384610E710B5FFF76BFA31
:1061D000FFF74EFE10BD00003112002088130000B2
:1061E000000400484A120020E4180020D0110020CA
:1061F0009011002000140048102700000704000040
:10620000FEB50927FF0600220521384606F0DDFA13
:1062100000220621384606F0D8FA00220721384627
:1062200006F0D3FA2020009002246846047100256D
:106230008571032646710121C1716946384606F011
:1062400058FA4020009068460471C4716946384687
:1062500006F04FFA802000906846047185714671FF
:10626000C4716946384606F044FAFEBD10B586B0E2
:1062700000206946FF22088005324A800722120268
:106280008A800222CA8001220A8152024A81102297
:106290008A81C8810720134C0882204607F097FDA9
:1062A000A114204607F031FE0121204607F00AFE26
:1062B00006B010BD70B50B4C05460221204607F014
:1062C000A3FE0028F9D02946204607F04EFE012102
:1062D000204607F099FE0028F9D0204607F049FE35
:1062E00070BD0000003001401CB51020009001205E
:1062F0006946087103204871002088710924C8711B
:10630000E406204606F0F5F91021204606F051FA81
:106310001CBD70B50925ED061021284606F04BFA84
:106320000520FFF7C7FF0020FFF7C4FF0446102138
:10633000284606F03EFA204670BD10B50924E40652
:106340001021204606F037FA0620FFF7B3FF102190
:10635000204606F02EFA10BD10B50924E4061021DF
:10636000204606F028FA0420FFF7A4FF102120465B
:1063700006F01FFA10BD70B50926F606102130464A
:1063800006F019FA9020FFF795FF0020FFF792FF23
:106390000020FFF78FFF0020FFF78CFFFF20FFF7A3
:1063A00089FF0502FF20FFF785FF284304461021DF
:1063B000304606F0FEF9204670BD10B5FFF7A9FF84
:1063C000C007FBD110BD10B5FFF7B7FFFFF7F5FF12
:1063D0000924E4061021204606F0EDF9C720FFF756
:1063E00069FF1021204606F0E4F9FFF7E6FF10BD33
:1063F00070B50403FFF7A1FFFFF7DFFF0925ED06E6
:106400001021284606F0D7F92020FFF753FF20027D
:10641000000EFFF74FFF2004000EFFF74BFFE0B226
:10642000FFF748FF1021284606F0C3F9FFF7C5FF24
:1064300070BDF8B507460D46092016460024102108
:10644000C00606F0B8F90320FFF734FF2802000E5B
:10645000FFF730FF2804000EFFF72CFFE8B2FFF72C
:1064600029FF05E00020FFF725FF3855641CA4B282
:10647000B442F7D309201021C00606F09AF9F8BDFE
:10648000F8B516460D4607460024FFF756FFFFF7FE
:1064900094FF09201021C00606F08DF90220FFF7B5
:1064A00009FF2802000EFFF705FF2804000EFFF782
:1064B00001FFE8B2FFF7FEFE04E0385DFFF7FAFEE9
:1064C000641CA4B2B442F8D309201021C00606F01F
:1064D00070F9FFF772FFF8BD10B5AA22C821154860
:1064E00009F080F913485522C821C83009F07AF91B
:1064F0000020FFF77DFF322006F01DF8C8220021A2
:106500000C48FFF7BDFF322006F015F80948C822F5
:106510000021C830FFF78DFF322006F00CF8054847
:106520000449C83000780978884201D0012010BDA4
:10653000002010BD44150020FFB5002085B002905A
:1065400003900546049006981C46001916460C2830
:1065500007D9FE480222017811430170002009B0DA
:10656000F0BD0096019401230020069A059901F0E0
:1065700007FC012808D102A8009001940123002003
:10658000069A059901F08BFB002119E0069A521832
:10659000042A08D0052A02AA09D0525C735C9A42E8
:1065A0000CD0002010E002AA535C182201E0535CDA
:1065B000E322775C13401740BB42F2D1491CC9B2B9
:1065C000A142E3D30128CAD06D1CEDB2032DC8D37C
:1065D000C5E7F7B5002282B0174616461546019268
:1065E000012200240092012806D002280AD00328A4
:1065F0000DD0002005B0F0BD012900D101260120F9
:1066000001900CE0012900D10125012707E00129B3
:1066100001D10126354601200746019002E001988C
:10662000002808D02001011BC948081841794908F1
:10663000490031434171002F09D02001011BC4489A
:10664000FD220818417911406A001143417120016F
:10665000011BBF4801230A18BE480521005D521DD9
:10666000FFF76AFF002800D10090641C2406240E66
:10667000D5D0B74DB74E0024049801280BD0200187
:10668000001B4219305D01230521521DFFF754FF05
:10669000002806D007E02001201A4219301B00789C
:1066A000F1E700200090641C2406240EE4D000983A
:1066B000A0E770B50346501E0E780025C4B29E4276
:1066C00028D28A18203AD27F9A422DD90BE0281975
:1066D00040080A5C9A421CD09A4202D9401EC4B2B9
:1066E00001E0401CC5B2A542F1D3281940080AD0E8
:1066F0000A5C9A4210D209184978891849089942C7
:1067000007D2401C10E0487830184008984201D267
:10671000012070BD002070BD09182039C97F5118B3
:1067200049089942F7D3401EC0B270BD7FB51646E6
:1067300089A20CCA0193009289A30CCB48438A49D1
:106740000393029209F094F880B264280DD80024D3
:1067500069460A5D824201D3254603E0641CE4B227
:10676000082CF6D3284604B070BD0121002402AAEB
:10677000135D834201D3254603E0641CE4B2082C78
:10678000F6D3C8014019F1000143C8B2EBE7F0B5F8
:1067900076A21ECA8DB06D461EC5784A1ECA1EC599
:1067A0006FA206CA06C576A109680A9175A1096893
:1067B0000B9100210C91002802D000200DB0F0BDFB
:1067C0007148714D417B027B0802203D1043697C7A
:1067D0002A7C090211430122D203904201D3401EB8
:1067E000C04380B20222FFF7A1FF0146584C0020AF
:1067F000A171082208A9FFF75CFFA1794007C90829
:10680000400FC9000143A1710520082204A9C0015D
:1068100000F09CFFE17940078F22400E11400143B8
:106820005948E171801E417B027B08021043697C5C
:106830002A7C0902114348437D21C90009F018F858
:10684000C0B210226946FFF734FFE1790007090959
:10685000000F09010143E17104220AA90220FFF798
:1068600028FF217ACF2280071140800E0143217238
:1068700004220BA90220FFF71CFF217A8001890660
:10688000890E0143314D21724048E88229460D2688
:106890001431A6573E480F887D21801BC90048430C
:1068A000394608F0DBFF3B494018000960723A485E
:1068B0007D21801BC9004843394608F0CFFF0121E4
:1068C0000903401A0009A0721920E072214806232A
:1068D000A21D00781946FFF72FFE102100286878C6
:1068E00003D0884368700C9868E701436970FAE741
:1068F00070B5002401252046FFF749FF002800D08D
:106900000025641C2406240EF5D0284670BDFEB573
:10691000012600242001011B0D4801270D182846DF
:106920000C3000900B480197015D3B46502200203F
:1069300001F0B5F9002800D10026284601210E30CB
:10694000044F01910090395D012327E024110020BC
:1069500068170020680D010816212C38434E596431
:106960002C43596F859BB2C810270000080B0E11ED
:106970001316191C1F2124272A2C2F3268100108F6
:106980000102040801040810E6170020FF5F000060
:106990009A100000F8DFFFFFB80B0000592200201A
:1069A00001F07DF9002800D1002628460D30012194
:1069B00000900191395D01235122002001F06FF90F
:1069C000002802D0012E02D00DE000260BE0287B2B
:1069D0000C210840A97B4000490940186100FE4A8B
:1069E000FF306E305052641C2406240E92D0304684
:1069F000FEBDFEB500246946F84E0872012502A8C6
:106A0000009001950022315D0123104601F0B8F994
:106A1000641C2406240EF2D0FEBDFEB58446002080
:106A20000446024669464300401C0006CA52000E56
:106A3000F9D0E94800231438C78A00225800012100
:106A40000D4695402E463D40D5400AD0A1406546B2
:106A50002940E14003D069460D5A35430D52641C6C
:106A6000E4B2521CD2B20F2AE9D35B1C1B061B0EE8
:106A7000E3D0DA4F00246D4601AE6000285A620070
:106A8000C106C90EA218B1548105C90E92195170E0
:106A90004004C00E9070385D03230121FFF74CFDC8
:106AA000641C2406240EE8D0FEBDF8B5CC4E102799
:106AB00001250020FFF7B1FFFF20FFF79AFFFFF746
:106AC00026FF002800D10025FFF712FF002800D183
:106AD000002500242001001B821910790821384369
:106AE00008431071507940214006400E0843DD21D3
:106AF0000840400840005071B8480223005D04215E
:106B0000121DFFF719FD002800D10025641C240682
:106B1000240EDFD0012211460220FFF75AFD002D7E
:106B2000C6D0F8BDF3B593B001200E900020044606
:106B300003900F2901D915B0F0BD06AF01251E2025
:106B4000014661430190CE19A4480096015D0123DE
:106B50000C22002001F0A3F8002831D02A469E49DB
:106B6000A2401439487890434870641C2406240ECF
:106B7000E5D0994800241438C08A109060000F9026
:106B80002001974A001B87181E20002506A9604394
:106B900046186800315C301840780902081881B244
:106BA0008D4A0F98105A48437D21C90008F056FEBF
:106BB0000D21795680B2002913DD797B081815E084
:106BC00000200E9028468449A04014394A7810438A
:106BD0004870002001463154401CC0B21E28FAD330
:106BE000C3E74942814203DAC9B2401A81B200E0E8
:106BF00000210120109AA8401040E84007D00398D7
:106C00004200139881520398401CC0B203906D1C3F
:106C1000EDB20F2DBDD3641C2406240EAED00E9809
:106C200089E7FEB5054600200446029001206C4E1F
:106C300003460022019008210096104601F02FF82B
:106C4000002824D03078C00921D0022102A8019167
:106C50000090012332220821002001F020F80128B1
:106C600006D16846007A000201B26846407A0C18E4
:106C70005C48417C007C09020143D32080006043D2
:106C800008F0F6FD28608020FFF7B3FE0120FEBD6E
:106C9000F0B5FFB05149C2B00546BF229200091DB0
:106CA00002A8FDF751FABE2001900024284609F001
:106CB0004BFD4D4909F060FF4C4909F02BFC07469C
:106CC00009F0FEFB4A4A4B4B09F04AF805460E46CE
:106CD0004949384609F050FF09F0F2FB2A4633468D
:106CE00009F056F808F06AFE0090029909F09CFF3E
:106CF00003D842487FB042B0F0BD02ADC0990098C1
:106D000009F010FF01D83E48F4E70198001BC10FBD
:106D1000081840100019C6B2B700E859009909F0E8
:106D200083FF23D878194068009909F0FBFE1DD82D
:106D3000B00040194468E859214609F0ADFF054606
:106D40002146009809F0A8FF294609F0E3FB7F21BE
:106D5000C90509F095FF0446304609F0F5FC2146C7
:106D600009F09AFE274909F097FFC3E7E85900990F
:106D700009F05AFF01D23446C7E70196C5E7F3B5DB
:106D800085B0002001210391069904460546029032
:106D9000022901D907B0F0BD02AF0420A100019083
:106DA000CE190E480096015D01232E22002000F02E
:106DB00076FF002807D101463154401CC0B2042898
:106DC000FAD300200390641C2406240EE5D000268C
:106DD000002402A8B10017E038110020680D010856
:106DE00068170020C61700200000BF430024744924
:106DF0006666666666660A4000002041000020C2A2
:106E00000000FE42000020420F186000385A40BACD
:106E1000FFF73EFF09F02EFC059940B24855FE49A8
:106E20006D1C88702830FD48EDB2015D19D0002935
:106E300001D0491E01550698854203D2641CE4B274
:106E4000022CE2D3761C3606360EC1D0F348F44944
:106E50000278002A09D0322A0ED0407832280BD08E
:106E60000EE03229E7D2491CE4E74278002AF4D147
:106E70004879FB22104002E048790422104348710F
:106E8000039887E7FEB50024E64FE74D0126200171
:106E9000001B4019009001960022395D0123104625
:106EA00000F0FDFE641C2406240EF0D0DB4C002014
:106EB000641F20700101091A695CCA0702D0227898
:106EC000324322704A0703D5227804231A432270E2
:106ED0000A0703D5227808231A432270CA0603D56D
:106EE000227810231A4322708A0603D522782023A1
:106EF0001A432270C90903D021784022114321701E
:106F0000401C0006000ED5D02878DF22810700291A
:106F1000C348217816DA0223194321704378890780
:106F20001340C90F49010B434370FF2069460872A3
:106F300002A800900196002239780123104600F043
:106F40001FFF09E0FD231940217043788907C90F0D
:106F5000134049010B434370207880060CD5202054
:106F6000FFF747FD7D24E400204605F0E4FAFFF733
:106F70009CFD204605F0DFFAFEBDFEB50026344636
:106F800002AD0127029628190090A6480197015DDD
:106F900001230522002000F082FE285D8007800F7B
:106FA0002855641C2406240EEDD09B48C670FEBDF7
:106FB000F8B59E4900204978974BCA069C495DD494
:106FC0009C4E002234464234657E277E2D023D438E
:106FD000677D247D3F02274320367478367824026B
:106FE000BC46344356007718FE78BF7836023E43DD
:106FF000371BAF4204DB664502D30126964030437F
:10700000521CD2B20E2AEDD38A4D002240356E7F3B
:107010002F7F36023E43697E2F7E0D023D43844919
:1070200057007F18F978BF78090239430F1BB74220
:1070300001DC012700E00027A94201D2012100E084
:1070400000210F4302D0012191408843521CD2B24B
:107050000E2AE4D378497D240A68E400A24204D9C8
:1070600000220A60D969C943D9617149020A0870CE
:107070004A70D9690840FFF7D0FCF8BDD869C2430F
:107080006E48DA6100880870030A4B701040F2E71E
:10709000F8B50024644D0827EF23624E00281DD068
:1070A000BF21DF2201282CD0022816D11F46200143
:1070B000001B42191079082108433840107150799B
:1070C0009F2108405071305D02230421121DFFF7FB
:1070D00033FA641C2406240EE9D0F8BD2001001BFD
:1070E00042191079EF21384308401071305D0123B7
:1070F0000421121DFFF720FA641C2406240EEDD093
:10710000F8BD687901230840104068716A1D0521A7
:107110000820FFF711FAF8BDF8B50024424D082702
:107120001023404E00281FD04021DF2201282ED0FE
:10713000022818D11F462001001B4219107908218E
:10714000084338431071507940210843DF2108403B
:107150005071305D02230421121DFFF7EDF9641C0C
:107160002406240EE7D0F8BD2001001B4219107937
:107170001021384308431071305D01230421121D92
:10718000FFF7DAF9641C2406240EEDD0F8BD687907
:1071900001230843104068716A1D05210820FFF78C
:1071A000CBF9F8BDF0B51C48002441791D4D8BB0DA
:1071B000F02979D38179022901D2491C01E000210B
:1071C0004171817105AE6700B819069002210090E7
:1071D0000191295D01230422002000F060FD0621B9
:1071E0002046484303AA0A90801808900090019115
:1071F000295D01230622002000F051FD2001031B20
:107200000948F25D1818182103790A400B409A4288
:1072100045D10699497813E0241100203C11002043
:1072200090110020680D01086817002084110020CB
:10723000E418002084170020B8110020D01100208D
:107240004279C909C901D209914228D10A9A03A9F0
:10725000895C9F2283791140134099421FD108997C
:10726000C279497852064906490E520E914216D10A
:107270000899027A897812090909090112019142D3
:107280000DD10899427AC978914208D10899807A3B
:107290000979814203D108984079192805D0F84826
:1072A000015D491C015503E033E0F5490020085514
:1072B000641C2406240E86D0F14900200A5C012AB1
:1072C00008D0401C0006000EF8D0EE48417949086D
:1072D00049004171EA4EEB4F0024305D032812D380
:1072E0002046FFF754FA2001011BE74802230A1841
:1072F000285D0421121DFFF71FF978790121084349
:10730000787100203055641C2406240EE5D00BB0A3
:10731000F0BD491CDDE7DA48C01F4178002907D0DD
:107320000179491CC9B20171052901D300210171FC
:1073300038E77047F8B50126D44F00252801411BD6
:10734000D1480C182079FD21084001210843207103
:107350000B46221D785D0421FFF7EEF8002802D0CD
:10736000012E02D00FE000260DE020790221084313
:10737000400840002071221D785D01230421FFF7A1
:10738000DBF8002805D06D1C2D062D0ED6D030461A
:10739000F8BD0026FBE7BA480C3000787047B848C3
:1073A000C01F0078704770B5B549B74BC91F8A7CBC
:1073B00004469500783B521C00205C51D2B28A747E
:1073C00004461E2A00D18C748D7C4A7C954201D1E2
:1073D000521C4A74D2B21E2A00D14C74497C00223D
:1073E0008C001C59491C2018C9B21E2900D100214B
:1073F000521CD2B21E2AF3D31E2108F039FA70BDF6
:10740000F8B59F4C0027E41FE27AA1483D46017879
:107410003E46130009F0CCFA050482B8FEFDFC00DC
:107420009C48FFF7FEFB2072012861D199489A4DD4
:1074300007681E20C74201DA984803E01E2F0EDDC0
:107440009648001D08F0F7F90090384609F074F9E5
:10745000009909F091FB09F00DF9286000E02E6019
:107460000A21286808F004FA00B28D4F010A387426
:107470007974FFF798FFB91E0875000A4875787C83
:107480003A7C0006011411430A20C142A07B0CDAA9
:10749000032801D2401CA073C0B2032809D1814A3D
:1074A000022010700120607303E0002801D0401E0C
:1074B000A073E07B08290FDD032801D2401CE07394
:1074C000C0B203280CD17749012008707649774A69
:1074D00009781170607303E0002801D0401EE0734A
:1074E00028680028207C05D0002801D0401E207488
:1074F000012047E0032801D2401C2074C0B20328B9
:10750000F6D168480670607B0128F1D100F0A9FD32
:1075100000F0C2FD00F010FE6673E9E7604E6448BB
:107520003E367179FFF72BFCA072002829D07779BD
:1075300025E05F48465730462830A72818D2002E4D
:1075400012DD5648A9000818403008F074F9009080
:10755000304609F0F1F8009909F00EFB09F08AF8BD
:1075600054494919887708E052484019867704E061
:1075700027215048C943401981776D1CEDB2AF42B5
:10758000D7D80220E072F8BD0E214B48FFF7CAFAA7
:107590003B49C91F4872002865D047486E00845B8C
:1075A00046492046FF38F63888421BD24448844278
:1075B00004D93A48A9000818083003E03748A90060
:1075C0000818483008F037F90090204609F0BCF858
:1075D000009909F0D1FA09F073F8364971188870EA
:1075E000000AC8706D1CEDB20E2DD6D3264E244B6A
:1075F0000020943EDB1F2F4A41008D18EA78AC78BA
:10760000120214436A792D7912022A43944202E04D
:107610009AE08CE058E001D9A21A00E0121B5A83CC
:1076200094B2284A9442725A0AD9642A01D2521C4E
:10763000725291B264290BD10121C1400F4307E07E
:10764000521E1204120C725202D10121C1408F430A
:10765000401CC0B20D28CED3002F04D0094802220E
:107660004179114303E00748FD2241791140044C60
:1076700041710320E41FE072FDF765FF2062F8BD51
:107680002B1100209011002068170020680D0108C0
:1076900084110020CC110020C41100200419002006
:1076A000A6170020501100203112002032120020B5
:1076B000C9110020E41800205C1A0020931100007A
:1076C000740E0000DC050000C90604D5217B0029EA
:1076D00001D0012100E000214078C006C00F014325
:1076E00015D0FDF730FF6062216A884202D2401A4D
:1076F000401E00E0401A014660627D204001814248
:1077000002D9267326626662FFF752FCF8BD00209C
:10771000FFF783F92D480078002802D02C484670E6
:107720000670012020730420E0722A4808E0C80691
:1077300008D528487D220168D2009142E6D9E67238
:107740000660F8BDFFF79EFBE672F8BD70B5034614
:10775000501E0E880025C4B29E422BD252005218F1
:10776000403AD28F9A422FD90CE0281940084200A3
:107770008A5A9A4228D09A4202D9401EC4B201E0E5
:10778000401CC5B2A542F0D3281940080BD04400D4
:107790000A5B9A4210D261184988891849089942AF
:1077A00007D2401C10E0488830184008984201D2A7
:1077B000012070BD002070BD61184039C98F51187B
:1077C00049089942F7D3401EC0B270BD5011002045
:1077D000E4180020B011002038B50546002000F064
:1077E0006BFB0121284600F04DFB002000F05CFB04
:1077F0000121284600F029FB3224684604806A46AD
:107800001188481E1080FAD2012000F055FB68460E
:1078100004806A461088411E1180FAD2012000F0CF
:1078200043FB684604806A461088411E1180FAD2E4
:107830000021284600F026FB002403E0641CA4B2CB
:107840001E2C0ED2284600F012FB0028F6D0002194
:10785000284600F0FAFA002405E0641CA4B21E2CAD
:1078600001D3092038BD284600F0E4FA0028F4D0FE
:10787000002038BDF3B581B00021019800F0E5FA91
:10788000002000F019FB0121019800F0FBFA05250A
:10789000684605806A461088411E1180FAD2002190
:1078A000F9480E4601706006040E0021019800F0B0
:1078B000E9FA002707E07F1CBFB21E2F03D3F2496D
:1078C0000C200870FEBD019800F0D1FA0028F2D01B
:1078D00000271E20694608806A461088411E1180D4
:1078E000FAD2019800F0A6FA002802D00120044341
:1078F00001E0640864001E20694608806A4610881A
:10790000411E1180FAD2002000F0D6FA0121019820
:1079100000F0B8FA684605806A461088411E11805A
:10792000FAD215801088411E1180FBD2761CF6B267
:10793000082EB8D30298002800D0012000F0B4FA35
:107940000121019800F081FA684605806A46108896
:10795000411E1180FAD20021019800F093FA0BE049
:107960007F1CBFB21E2F07D3002000F0A5FA012113
:10797000019800F087FAA2E7019800F078FA002851
:10798000EED0684605806A461088411E1180FAD202
:10799000002000F091FA0121019800F073FA3220E2
:1079A000694608806A461088411E1180FAD2204636
:1079B000FEBDF3B50E46B44881B000210170084603
:1079C00000F072FA0121019800F03FFA002000F067
:1079D00073FA0121019800F055FA00251E27802E28
:1079E00001D3012000E0002000F05EFA6846078025
:1079F0006A461088411E1180FAD20021019800F0D9
:107A000041FA002403E0641CA4B21E2C36D2019873
:107A100000F02DFA0028F6D00520694608806A4655
:107A20001088411E1180FAD2002000F045FA012191
:107A3000019800F027FA7006060E684607806A462D
:107A40001088411E1180FAD26D1CEDB2082DC6D3EC
:107A50000021019800F0F9F90525684605806A467D
:107A60001088411E1180FAD20021019800F00AFA14
:107A7000002407E0641CA4B21E2C03D382490A2010
:107A80000870FEBD019800F0F2F90028F2D00198CC
:107A90000024002809D00DE0641CA4B21E2C04D3DD
:107AA00079480B2101700846FEBD019800F0C2F92B
:107AB0000028F1D1684605806A461088411E118071
:107AC000FAD2002000F0F8F90121019800F0DAF96B
:107AD0003220694608806A461088411E1180FAD219
:107AE000FEBD38B50546012000F0E6F9012000F0A2
:107AF000DBF90021284600F0C5F9002405E0641CEC
:107B0000A4B21E2C01D3062038BD284600F0AFF9E0
:107B10000028F4D00021284600F097F9002405E061
:107B2000641CA4B21E2C01D3072038BD284600F0E7
:107B300081F90028F4D03224684604806A4611880E
:107B4000481E1080FAD2002000F0AEF9012128462C
:107B500000F07BF9684604806A461088411E118057
:107B6000FAD2002000F0A8F90121284600F08AF995
:107B7000684604806A461088411E1180FAD238BDDA
:107B8000FFB581B015460F460B9E0A9C0198FFF782
:107B9000A8FF00283CD17F00F9B20198FFF709FF48
:107BA000002835D10498012805D0290A0198FFF74B
:107BB00000FF00282CD1E9B20198FFF7FAFE002857
:107BC00026D10198FFF78DFF002821D17F1CF9B243
:107BD0000198FFF7EEFE00281AD1002E18D00025DC
:107BE000294F761E0AE000210198FFF743FE20701E
:107BF000F878641C00280BD16D1CEDB2B542F2DBA5
:107C000001210198FFF736FE2070F878002805D092
:107C10000198FFF7E1FD002005B0F0BD0198FFF7E6
:107C2000DBFD0020F8700120F6E7FFB581B01F46AC
:107C300015460B9E0A9C0198FFF753FF00281ED1A2
:107C400002984006010E0198FFF7B3FE002816D1F6
:107C5000012F05D0290A0198FFF7ABFE00280ED1AD
:107C6000E9B20198FFF7A5FE002808D100250FE032
:107C70002178641C0198FFF79CFE002806D001982B
:107C8000FFF7AAFD0020C7E74C1100206D1CEDB2E4
:107C9000B542EDD30198FFF79FFD0120BCE7FFB58A
:107CA00081B00A980025009014460F462E46019890
:107CB000FFF717FF002853D17F00F9B20198FFF7B3
:107CC00078FE00284CD10498012805D0210A01989B
:107CD000FFF76FFE002843D1E1B20198FFF769FE7C
:107CE00000283DD10198FFF7FCFE002838D17F1C09
:107CF000F9B20198FFF75DFE002831D10B980028FA
:107D00002ED0F8B2002100F0DFF8774C60700B98AD
:107D100047002EE0E80704D0781EA8420DD00021CD
:107D20000CE000210198FFF7A5FD00998855E07847
:107D3000002815D1761CF6B219E001210198FFF751
:107D400099FDA070E07800280AD100986178801928
:107D50002038C07F00F0B8F86070A178884204D065
:107D60000198FFF739FD002056E7002060706D1C78
:107D7000EDB2AF42CED80198FFF72EFD01204BE7C0
:107D8000FFB581B014460F460B9E0A9D0198FFF780
:107D9000A8FE002840D17F00F9B20198FFF709FE44
:107DA000002839D10498012805D0210A0198FFF74D
:107DB00000FE002830D1E1B20198FFF7FAFD00285B
:107DC0002AD129780198FFF7F4FD002824D1F8B2D0
:107DD000002100F079F80146E0B200F075F82A7849
:107DE0000146104600F070F801460198FFF7E1FDEA
:107DF000002811D1012416E0295D0198FFF7D9FD73
:107E0000002809D1285D002100F05EF801460198A4
:107E1000FFF7CFFD002804D00198FFF7DDFC00201C
:107E2000FAE6641CE4B2B442E6D30198FFF7D4FC4E
:107E30000120F1E6014610B50020002904D10121FE
:107E400089032A4804F0A3FC10BD1CB5012900D009
:107E5000002100280AD101208003009003226846F7
:107E6000427101716946214804F043FC1CBD014682
:107E700010B50020002904D1012149031B4804F05A
:107E800086FC10BD1CB5012900D0002100280AD1B4
:107E90000120400300900322684642710171694647
:107EA000124804F026FC1CBD10B5024601218903CE
:107EB0000E4804F082FC10BD10B5024601214903B2
:107EC0000A4804F07AFC10BD00224840072103064E
:107ED00003D54006000E484001E04006000E521C4B
:107EE000D2B2082AF3D370474C1100200004004896
:107EF000F0B50024FE4A631E5383FE4E13E0035D7B
:107F0000558B1B026B40641C5383E4B20023558BDA
:107F10002F0402D56D00754000E06D005B1C9BB224
:107F20005583082BF3D30B46491E89B2002BE6D1AB
:107F3000F0BD70B5FFB081B00E4605460122EE4C93
:107F40005202EE496846FCF7FFF8684608E02978D7
:107F5000220A51404900415A220251408CB26D1C04
:107F6000761EF4D27FB0204601B070BD70B50022FD
:107F7000044613461046002903D0002C01D0E04EE1
:107F80000BE0002070BD5500655BB54201D028189C
:107F900001E05B1CDBB2521CD2B28A42F3D3C91A95
:107FA00007F05CFC80B270BD70B50022044610463C
:107FB0001346002901D0002C0BD1002070BDA5561E
:107FC0002E46283601D0281801E05B1CDBB2521C7B
:107FD000D2B28A42F3D3C91A07F04AFC40B270BD4C
:107FE000F0B5002696468C4635463446002B19D00F
:107FF000002817D0C2490FE06700C75B8F4209D045
:108000007200825ABA4200D226466A00825ABA42A6
:1080100000D92546641CE4B29C42EDD3604606704C
:1080200070460570F0BDF0B50026944635463446DE
:10803000002B15D0002813D00DE007573A46283200
:1080400007D08257BA4200DA26464257BA4200DDCC
:108050002546641CE4B29C42EFD30E706046057066
:10806000F0BD10B5A748FF2131310446FFF740FFAE
:108070009F489922418BA4480177090A41772146FC
:10808000A24802F092F80A2004F055FA99222146FB
:108090009F4802F08AF810BD9B4810B580213E3001
:1080A000FFF726FF92484124418B97482246BE3075
:1080B000018001468039974802F077F80A2004F0E1
:1080C0003AFA914922463E31934802F06EF810BDCB
:1080D000F8B58D498F4F412632463E31384601F082
:1080E000E6FF894880213E30FFF702FF864C804D35
:1080F000BE342088698B884216D00A2004F01BFA0F
:10810000214632468039844801F0D1FF8021601A2F
:10811000FFF7EEFE2088698B884206D02846403063
:108120004179102211434171F8BD774932463E3101
:10813000384602F03AF8F8BD70B56D4A774C4032D7
:108140001178CD07ED0F8807C00F054374480378F9
:1081500007D0DD070CD125886D1C258001252B4318
:1081600005E0DE0704D0002D02D15B085B00037040
:108170004B070D072B4309D503789D070ED465885F
:108180006D1C658002252B43037007E00578AE0760
:1081900004D5002B02DBFD231D400570CD068B06A8
:1081A0001D43037807D55D070CD4A5886D1CA580F9
:1081B00004252B4305E05E0704D5002D02DBFB25DB
:1081C0002B4003704B06DB0FC9090B43017807D026
:1081D0000B070CD4E3885B1CE3800823194305E0FC
:1081E0000D0704D5002B02D1F723194001705178F7
:1081F000CB078D07DB0FED0F2B434D07ED0F2B4307
:1082000009D00378DD060ED425896D1C2581102543
:108210002B43037007E00578EE0604D5002B02D14E
:10822000EF231D4005700B07CD062B4389060B433A
:10823000017807D58D060CD465896D1C65812025D4
:10824000294305E08D0604D5002B02DBDF252940FC
:1082500001701179CD06057808D56E0608D4A38A79
:108260005B1CA38240231D43057007E06D0605D506
:10827000002B03DB0378BF252B400370D078CA079F
:10828000C009920F10438A07D20F920010434A0789
:10829000D20F0907D200C90F104309010843E08239
:1082A00020211E48FFF724FE114D1C49688B2084B5
:1082B000AA8B1C4801F079FF0A2004F03CF9AA8B34
:1082C0001649194801F071FF70BDF8B5084C154FFB
:1082D000E28B1249384601F0EAFE20210F48FFF7F1
:1082E00007FE0E4E618B308C2546403588421DE0DE
:1082F000501100202110000035A600007810010860
:10830000FFFF0000C6170020C6180020004001082B
:108310000068010800480108007001088619002063
:108320005111002000500108007801081AD00A20DD
:1083300004F001F93146E28B8239FE4801F0B7FEC4
:1083400020213046FFF7D4FD308C618B884204D069
:10835000687910210843687104E0E28BF6493846D9
:1083600001F023FFE8784106B07D490EC2011143B8
:108370008006E970C00E2871F8BDF0B50388EF4C97
:10838000A34211D18488A3420ED10489A3420BD108
:108390008489A34208D1048AA34205D10023038221
:1083A00083810381838003809BB28B421CD2018036
:1083B00042800022002104239F1A0FE08D002B1819
:1083C000445B9E88B44207D9A4465C884653DD8846
:1083D0005D8065469D80DC80491CC9B28F42EDDC22
:1083E000521CD2B2042AE5D3F0BDF0B50388D34CB9
:1083F000A34211D18488A3420ED10489A3420BD198
:108400008489A34208D1048AA34205D17F23038231
:1084100083810381838003800023C35E8B421DDD43
:10842000018042800022002104239E1A10E08F0068
:108430003B180425C45F5D5FAC4207DAA4465C8844
:10844000C553DD885D8065469D80DC80491CC9B2CE
:108450008E42ECDC521CD2B2042AE4D3F0BDF0B55B
:108460000388B64CA34212D18488A3420FD1048959
:10847000A3420CD18489A34209D1048AA34206D124
:108480002723DB43038283810381838003800023CE
:10849000C35E8B421DDA018042800022002104234A
:1084A0009E1A10E08F003B180425C45F5D5FAC424C
:1084B00007DDA4465C88C553DD885D8065469D80E8
:1084C000DC80491CC9B28E42ECDC521CD2B2042AB8
:1084D000E4D3F0BDF0B50023C35E8B421DDA01800A
:1084E00042800022002104239E1A10E08F003B18D6
:1084F0000425C45F5D5FAC4207DDA4465C88C553BC
:10850000DD885D8065469D80DC80491CC9B28E4255
:10851000ECDC521CD2B2042AE4D3F0BDF0B5102337
:10852000C35E8B421DDD01824282002200210423B2
:108530009E1A10E08F003B180425C45F5D5FAC42BB
:1085400007DDA4465C88C553DD885D8065469D8057
:10855000DC80491CC9B28E42ECDC521CD2B2042A27
:10856000E4D3F0BDF0B503888B421CD90180428072
:108570000022002104239F1A0FE08D002B18445B7A
:108580009E88B44207D2A4465C884653DD885D804D
:1085900065469D80DC80491CC9B28F42EDDC521CCF
:1085A000D2B2042AE5D3F0BDF8B5654C654D624BF7
:1085B0002F4620462278418C4A332037807CBE1CCF
:1085C00040350093022A02D0022835D07BE00228F1
:1085D0000AD02720C04360857F20A08500206086C8
:1085E0002086401E608471E01D202A223856A25E3B
:1085F000904200DD60851C202C223856A25E9042FD
:1086000000DAA0857079327900021043628E9042C0
:1086100000D96086707C327C000600141043302242
:10862000A25E904200DA208678783A780002104301
:10863000884200D26084D6E0687B2A7B0002104327
:10864000401C82B23C483630FFF78CFF687B297BA8
:1086500000020843401C82B237483021615E5E3020
:10866000FFF75CFF687B297B00020843401C82B255
:1086700031482A21615EAE30FFF7F1FE687B297B2D
:1086800000020843401C82B22B482C21615EC2309C
:10869000FFF7ABFE687B297B00020843401C82B2D7
:1086A000618E0098FFF769FE23495A22223126483D
:1086B00001F07BFD0A2003F03EFF1F495A222231C0
:1086C000224801F072FD2078012803D0A07C012807
:1086D00044D088E0A07C012808D02720C043E08453
:1086E0007F20208500206086E08535E01D20262142
:1086F0003856615E884200DDE0841C20282138560F
:10870000615E884200DA2085707931790002084381
:10871000618E884200D96086707C317C000600142E
:1087200008432E21615E884200DDE0857078317853
:1087300000020DE00070010886190020FFFF000014
:108740005011002084170020005801080080010803
:108750000843A18C884246D9A08444E0687B297BE9
:1087600000020843401C82B2A18CFE48FFF705FEC0
:10877000687B297B00020843401C82B2F9482E2105
:10878000615E5030FFF7A6FE687B297B000208433C
:10879000401C82B2F3482621615E6430FFF75FFE21
:1087A000687B297B00020843401C82B2ED482821E7
:1087B000615E7830FFF719FE687B297B0002084371
:1087C000401C82B2618E0098FFF7D7FD5A22E5491E
:1087D000E54801F0EAFC0A2003F0ADFE5A22E14927
:1087E000E24801F0E2FC2078A074F8BDF0B5E04A60
:1087F000012513461B7B567B5B1C0024DBB2002E3D
:1088000006D0012E0ED0022E2AD05473507BF0BD1C
:1088100046780778360636143E438E4227DA2BE038
:10882000557329E0C57886782D062D1435438D4281
:1088300005DC1373057A9D4201D154731473437997
:1088400005791B061B142B438B42DFDB117B491C74
:10885000C9B21173007A8842D8D1022050730BE05C
:10886000C6798779360636143E438E4204DC13738C
:10887000007A9842D4D0C9E71473C7E7F0B5BC4A70
:10888000012513461B7956795B1C0024DBB2002EB0
:1088900006D0012E0DD0022E27D054715079F0BD94
:1088A0004678077836023E438E4224D828E0557138
:1088B00026E0C57886782D0235438D4205D21371A6
:1088C000057A9D4201D154711471437905791B02D7
:1088D0002B438B42E2D91179491CC9B21171007A3C
:1088E0008842DBD1022050710AE0C67987793602CE
:1088F0003E438E4204D21371007A9842D7D0CDE71E
:108900001471CBE7F0B59A4A012513469B7AD67AC3
:108910005B1C0024DBB2002E06D0012E0ED0022EEE
:108920002AD0D472D07AF0BD46780778360636144D
:108930003E438E4227DD2BE0D57229E0C57886784C
:108940002D062D1435438D4205DB9372057A9D4229
:1089500001D1D4729472437905791B061B142B4301
:108960008B42DFDC917A491CC9B29172007A88424D
:10897000D8D10220D0720BE0C6798779360636143A
:108980003E438E4204DB9372007A9842D4D0C9E70A
:108990009472C7E7F0B5764A012513469B78D678DE
:1089A0005B1C0024DBB2002E06D0012E0DD0022E5F
:1089B00027D0D470D078F0BD4678077836023E4391
:1089C0008E4224D328E0D57026E0C57886782D0223
:1089D00035438D4205D99370057A9D4201D1D470FB
:1089E0009470437905791B022B438B42E2D2917834
:1089F000491CC9B29170007A8842DBD10220D07044
:108A00000AE0C679877936023E438E4204D99370D4
:108A1000007A9842D7D0CDE79470CBE770B5544A2E
:108A2000012513461B7C567C5B1C0024DBB2002E08
:108A300006D0012E0BD0022E21D05474507C70BD74
:108A4000002686578E421EDA22E0557420E001256A
:108A500045578D4205DC137405799D4201D154744C
:108A600014740223C3568B42E8DB117C491CC9B243
:108A7000117400798842E1D10220507408E0032685
:108A800086578E4204DC137400799842DDD0D5E716
:108A90001474D3E770B5364A012513469B7BD67B09
:108AA0005B1C0024DBB2002E06D0012E0BD0022E60
:108AB00021D0D473D07B70BD002686578E421EDD38
:108AC00022E0D57320E0012545578D4205DB9373E5
:108AD00005799D4201D1D47394730223C3568B420E
:108AE000E8DC917B491CC9B2917300798842E1D1DD
:108AF0000220D07308E0032686578E4204DB93736E
:108B000000799842DDD0D5E79473D3E7F0B5184AE1
:108B1000012513461B7A567A5B1C0024DBB2002E1B
:108B200006D0012E0DD0022E30D05472507AF0BDF6
:108B30004678077836023E438E422DD331E0557297
:108B40002FE0C57886782D0235438D4205D9137202
:108B5000057A9D4201D154721472437905791B0242
:108B60002B4307E0A81900200058010800800108E5
:108B7000501100208B42D9D2117A491CC9B211720E
:108B8000007A8842D2D1022050720AE0C6798779F1
:108B900036023E438E4204D91372007A9842CED0F8
:108BA000C4E71472C2E7F0B5FE4A012513469B796B
:108BB000D6795B1C0024DBB2002E06D0012E0DD02E
:108BC000022E27D0D471D079F0BD467807783602CE
:108BD0003E438E4224D328E0D57126E0C5788678BE
:108BE0002D0235438D4205D99371057A9D4201D1FD
:108BF000D4719471437905791B022B438B42E2D2E5
:108C00009179491CC9B29171007A8842DBD1022066
:108C1000D0710AE0C679877936023E438E4204D984
:108C20009371007A9842D7D0CDE79471CBE7F8B52D
:108C30000020DC4D0090A86B002802D1FCF783FCDB
:108C4000A863FCF780FCE863A96B884202D2401A53
:108C5000401E00E0401A7D21C900E863884278D9AF
:108C60000020D04CA8634034E863A070607020708E
:108C7000E078A021CC4E0840E07070783178000296
:108C80000843CA49B71C884278793A7907D3010268
:108C9000304611437430FFF786FF000106E0010201
:108CA000C14811437E30FFF731FF80012178BE4D6E
:108CB00008432070BB48203D01782846403060358D
:108CC000844601293DD1787C3A7C00060114687BFA
:108CD00011432A7B000600141043814203DD6078B3
:108CE000042108436070B0481D2171569C30FFF785
:108CF000D1FE01282ED0022860782ED0BF21084056
:108D00004006400E6070607940070FD4A6481C21D1
:108D10007156A230FFF782FE012821D00228A078E8
:108D200021D040084000FD210840A070102062467C
:108D3000002128565156884203DAA07804210843BE
:108D4000A07098480078022810D0002100284DD04B
:108D50000DE056E16078402100E080210843D1E732
:108D6000A078012100E002210843DEE70121002074
:108D700001432DD06078FB21084060708A481D2196
:108D80007156A830FFF786FE012831D00228A0785E
:108D900031D0E7210840A070607940070DD48248A7
:108DA0001C217156AE30FFF739FE012826D002286B
:108DB000A07826D09F210840A07011206246002193
:108DC00028565156884203DAA07880210843A070C3
:108DD0006046E979807A814202D9724A012111768E
:108DE0000F2811D96F490020087615E00120BFE750
:108DF000A078082100E010210843CCE7A0782021CA
:108E000000E040210843D7E76648007E002803D0F1
:108E1000E0784021084302E0E078BF210840E0709C
:108E200078783A780102604811436030FFF7B2FD6C
:108E3000217808432070787C3A7C000601145A4857
:108E400011438830FFF75EFD6178084360707078E9
:108E500032780102544811436A30FFF70FFD217840
:108E6000800008432070787C3A7C000601144E484C
:108E700011439230FFF7BAFC6178C0000843C7B2D3
:108E800067701D21182248487156AA562C38914205
:108E900041790ADD782901D2491C4171C9B278298A
:108EA0000ED1E1781022114309E0002908D0491EB3
:108EB0000906090E417103D1E178EF221140E170FA
:108EC0001C2119227156AA5691420FDA617949077D
:108ED0000CD48179782901D2491C8171C8B27828D3
:108EE00018D1E07820210843E07013E0817900294F
:108EF00008D0491E0906090E817103D1E078DF21EF
:108F00000840E0706079410704D5810702D501214E
:108F1000084302E060794008400060712148343025
:108F20008078C00603D41F48007801285BD02079E0
:108F3000EF2108402071E078FD2140084000084002
:108F4000FB221040F7231840E07060799F231840FF
:108F50004006400E6071A079400840000840104073
:108F6000A07110491048082240310C3806F0F9FB76
:108F70002078C5078107ED0FC90F0D434107020790
:108F80001143C90F49000D43C10682061143C90FA1
:108F900089000D434106C90FC0090143C8000543BC
:108FA000F80705E050110020A4170020740E0000FF
:108FB000B907C00FC90F08437907C90F084300015B
:108FC00005433807F9060843B9060843C00F4001B6
:108FD00005432079C006C00F80010543FE48C18AC1
:108FE000002908D103E0207910210843A2E7FB49BA
:108FF000C97D8D4205D00099C182FFF79DF8F748E1
:10900000C575F8BDF8B5F64DF34E2A461C3AA23E9A
:10901000EB7B511CB01CFEF7E3FF2C46203C607933
:10902000400080194188A01C01700A0A4270227910
:109030005200921952882270130A6370891A0171C2
:10904000090A4171E97BB01CFEF790FF21462039E7
:109050008877020ACA77E97B4843642106F0FEFB61
:109060002146203988830F46304660371E307B7991
:10907000AA1E3F310646FEF7D6FFE07F815D61778D
:10908000A07F805D2077081A287079793046FEF736
:109090008BFFA076D3480178D048022900D8017808
:1090A000E176817D002904D0FFF7C1FDFFF77CFA4E
:1090B000F8BDCD49427D01234979002A04D0C27C04
:1090C000914204D3891A04E0C1744375F8BD891A2A
:1090D0003C310175C9B20529F8D38375F8BDFEB5D9
:1090E000BE4EBF49308C891C420800250F46BF4840
:1090F00000F0DDFF308C801E81B23846FEF7F8FEAE
:10910000B548B74CC0380190417F007F0902014348
:10911000403C2046728B203040340090914215D064
:10912000308C39464208B24800F0C1FF308C801EB6
:1091300081B23846FEF7DCFE0198417F027F0802CB
:10914000718B1043884202D1FEF78BFFA5E1A34843
:10915000102240304179114341710E20E073FEF737
:109160004FF9FFF74FFF6D1CEDB2642DF7D3009858
:10917000417802780802104300F0B8FB9D49020ACA
:10918000C87300260A74002810D00A2106F066FB76
:10919000C0B29949A07248439649C91C06F056FBD3
:1091A000964906F05BFB3871000A07E09149A67208
:1091B000C91C002006F04AFB3E71300A78719048C5
:1091C0003870000A78708E482071000A60717879D2
:1091D000397900020843642106F040FB2072000A3E
:1091E00060726420E0722673300A6073A6730E20EA
:1091F000E073267466749620387400207874814871
:109200002075000A60757F48052564303875000AAE
:1092100078757C482076000A60760F20387600202A
:109220007876257760771E21397778776C48764A8B
:1092300020300270120A4270FA228270C570012238
:1092400002710222427186719322C17192000272F0
:10925000120A42726D4B821C13721B0A5372AF23A7
:109260009B0003731B0A4373694B13731B0A5373ED
:10927000017441742821634F117400235374C8375B
:1092800007753B0A43755F4B13751B0A53754623DD
:1092900003762223DB4343765E4B13761B0A537619
:1092A000594B03771B0A4377FF20F5301077000AEC
:1092B00050774B48584A40300270120A564B427061
:1092C000323B821C13701B0A5370534B32330371B1
:1092D0001B0A4371504B13711B0A53710323037212
:1092E000457217723B0A53727D235B0103731B0A9D
:1092F0004373444B13731B0A537307743B0A437441
:1093000003238374C574C827077500234375962308
:10931000137500235375FF232D3303761B0A437601
:10932000FA231376002353760323037745771777C1
:10933000380A50772A489622603002700022427024
:10934000FF232D33821C13701B0A5370FA23037101
:109350000023437103238371FF00C57107723B0A29
:1093600043722E4B13721B0A53727D231B0103732E
:109370001B0A437317733B0A5373032303747F421F
:10938000457417743B0A5374244B5B4203751B0AE4
:109390004375234B13751B0A537507763A0A4276B9
:1093A00003228276C576322202774177372383778C
:1093B000C27703272030077045708670C5706F42F2
:1093C0000771467103278771C571027241728372FA
:1093D000C2720773457325E08619002050110020E2
:1093E000C417002031120020521200200040010852
:1093F00000680108781A002080D97800407E0500B6
:1094000034080000740E0000C409000006020000C9
:10941000C0E0FFFF9411000068100000DC050000B0
:1094200030F8FFFF8673C5736F42077446740327D5
:109430008774C574027541758375C2750776457664
:109440008676C5766F420777467703278777C57795
:109450002030027041708370C2700771457186714F
:10946000C5716942017246728772C57255227221B6
:109470000C3006F0B7F90198012101760021417600
:10948000AF48290A05764176E12109010177090AE9
:1094900041772221C23006F0CAF92E21A94806F0F0
:1094A000C6F9A7482021203006F0C1F9A5480A22B4
:1094B000A549143806F055F9A349A2480A220A31F1
:1094C0000A3806F04EF99F48E121C9000E300175B7
:1094D000090A4175FF210098B9310176090A4176E0
:1094E000FEF7F3FE96489949C230008C884204D1B9
:1094F00093482221C23006F09AF9FEF7E9FD904F19
:109500000026934D4037B000C0190830009006F097
:1095100092F9A84204D37F20C005009906F096F97D
:10952000761CF6B20E2EEED300268548B1004030F0
:109530000F184837384606F07EF9A84204D37F203A
:109540003946C00506F082F9761CF6B20E2EECD331
:109550007B4E4036301D06F06EF9A84204D37F20C2
:10956000311DC00506F072F97548403006F063F908
:10957000A84205D372497F204031C00506F066F944
:109580006F488030064606F056F9A84204D37F2083
:109590003146C00506F05AF969488430064606F09F
:1095A0004AF9A84204D37F203146C00506F04EF99F
:1095B000A07A06F05EFE05460E4660792179040227
:1095C0000C43204606F055FE0022624B06F054FE86
:1095D0002A46334606F050FE06F0FEFD5E4DE91CBD
:1095E00006F034F95D48E91D604306F02FF9564A4C
:1095F000083AD078430652485B0EC230817DC801DC
:109600000343D37010798B0740084000DB0F1843E9
:10961000FD2318404B07DB0F5B001843FB2318406A
:109620000B07DB0F9B001843C906F723C90F18402F
:10963000C900084310714248DE3006F0FCF8484C7F
:10964000211D06F003F90246810602D145498A42EE
:1096500003D3211D002006F0F9F83948DA3006F06E
:10966000EAF83F4906F0F2F83F4906F0EFF83448CF
:10967000B421E43006F0DBF831495A22E4313B48AA
:1096800000F015FD0A2002F056FF2D495A22E43160
:10969000374800F00CFDFEBD7CB50026294D009634
:1096A0002C350196687B297B000208432E4C401C18
:1096B000A41E2070000A607006222E49A01D06F02C
:1096C00050F828462038C07E2073A87A6073E87A64
:1096D000A0731D486946083802780A7042784A70BB
:1096E00082788A70C1780A0912016946CA700179C4
:1096F000CA06D20E69460A714179CA06D20E694677
:109700004A71807908210840694688712046CE71E7
:109710000822113006F025F828461E38427C017CCC
:109720001006001408432146C873000A087404494F
:10973000204620222031193006F013F87CBD0000AD
:10974000C41800209817002098110020FFFF000087
:10975000000080800020AC40781A0020407E050088
:10976000CE1F00200024F400961F0020005801089E
:1097700000800108521200203EB501242405204635
:1097800005F02AFC0094002168460171082141710E
:109790000124847105F0CEFB0221684601724472F7
:1097A000847202A803F0A4FA01218C03204605F07C
:1097B00055F8204605F0A7F80020C04305F00CFC42
:1097C0003EBDF0B585B0002004F0DBFE002004F0C3
:1097D000BCFE3E48C178142901D2002901D10521DF
:1097E000C1703A4940394A780B781102384A194316
:1097F000914201D2374802E0C0783749484304F02B
:10980000B3FE012004F0BDFEFFF7B6FF20270024C1
:109810006846029704738473C47302A92F4802F048
:1098200068FF2F4D2F4EA878C0090FD068460296CA
:1098300004738473C473092002A9C00602F059FF9F
:10984000A878C00902D0304605F0C6FB202005F0FC
:10985000C3FB0097684604710C2141710127877191
:1098600005F068FBA878C0090AD0304605F0B4FBC3
:1098700068460096047110214171877105F05AFB0A
:109880000721684601744474877404A803F030FA11
:109890000521012005F0DBFBA878C00903D00B21CE
:1098A000002005F0D4FB0020C04305F095FB05B077
:1098B000F0BD10B50C48002181610161FFF781FF07
:1098C0000121084605F07EF810BD0000E4170020D5
:1098D000420E000050C30000C4090000000400480C
:1098E000841100200008000000E000E0FE4910B5EF
:1098F000884202D37D20C00010BD1921C9018842D1
:1099000001D8002010BDF949002462008A5A824221
:1099100003D9641CE4B2652CF7D362005318403BB2
:109920008A5ADB8F801A991A0A22504305F0A0FF49
:109930006421091B0A225143401880B210BDF8B5BA
:10994000EB4801210088C90380B2884201D3401E40
:10995000C04384B2E74800270178E74EE748012971
:109960001AD0B51C022903D02F73380A68731EE081
:10997000C01C05F060FFA04202D82F73380A09E02E
:109980003C2105F06BFF21466422514305F066FF40
:109990002873000A6873F8BDD848C01C05F04BFF57
:1099A0000546D648C01D05F046FF854202D33774F0
:1099B000380A12E03C2105F051FF21466422514350
:1099C00005F04CFFCC4964222031897A511A484372
:1099D000114605F043FF3074000A7074F8BDF0B50D
:1099E000C34DC74928888BB080B248800121C90384
:1099F000884201D3401EC043C14980B2BE4F488057
:109A000020370190787939790002084306F031FC5B
:109A100004460E46019806F02CFC0022B94B06F0D5
:109A20002BFC2246334606F0B3F90022B54B06F074
:109A3000AFF9B34A064651611061AE48039101780F
:109A4000AD48AE4C0190601C079012300090022986
:109A50007ED10021104601700A46AB4B3046039977
:109A600006F00AFC0022A94B06F062F93246039B7D
:109A700006F002FC06F0B0FBA549081A81B2A04826
:109A8000001D01800198427803781002184381423A
:109A900072D9A0498842FBD900229F4B30460399D6
:109AA00006F094FF68D89648002206694169964BF3
:109AB0003046039106F0E0FB0022944B06F038F9A3
:109AC0003246039B06F0D8FB06F086FB1921C9013C
:109AD000081A8B4980B2091D48800E88301A06F09A
